{
  "_format": "hh-sol-artifact-1",
  "contractName": "ProxyAdmin",
  "sourceName": "@openzeppelin/contracts/proxy/transparent/ProxyAdmin.sol",
  "abi": [
    {
      "inputs": [
        {
          "internalType": "address",
          "name": "initialOwner",
          "type": "address"
        }
      ],
      "stateMutability": "nonpayable",
      "type": "constructor"
    },
    {
      "inputs": [
        {
          "internalType": "address",
          "name": "owner",
          "type": "address"
        }
      ],
      "name": "OwnableInvalidOwner",
      "type": "error"
    },
    {
      "inputs": [
        {
          "internalType": "address",
          "name": "account",
          "type": "address"
        }
      ],
      "name": "OwnableUnauthorizedAccount",
      "type": "error"
    },
    {
      "anonymous": false,
      "inputs": [
        {
          "indexed": true,
          "internalType": "address",
          "name": "previousOwner",
          "type": "address"
        },
        {
          "indexed": true,
          "internalType": "address",
          "name": "newOwner",
          "type": "address"
        }
      ],
      "name": "OwnershipTransferred",
      "type": "event"
    },
    {
      "inputs": [],
      "name": "UPGRADE_INTERFACE_VERSION",
      "outputs": [
        {
          "internalType": "string",
          "name": "",
          "type": "string"
        }
      ],
      "stateMutability": "view",
      "type": "function"
    },
    {
      "inputs": [],
      "name": "owner",
      "outputs": [
        {
          "internalType": "address",
          "name": "",
          "type": "address"
        }
      ],
      "stateMutability": "view",
      "type": "function"
    },
    {
      "inputs": [],
      "name": "renounceOwnership",
      "outputs": [],
      "stateMutability": "nonpayable",
      "type": "function"
    },
    {
      "inputs": [
        {
          "internalType": "address",
          "name": "newOwner",
          "type": "address"
        }
      ],
      "name": "transferOwnership",
      "outputs": [],
      "stateMutability": "nonpayable",
      "type": "function"
    },
    {
      "inputs": [
        {
          "internalType": "contract ITransparentUpgradeableProxy",
          "name": "proxy",
          "type": "address"
        },
        {
          "internalType": "address",
          "name": "implementation",
          "type": "address"
        },
        {
          "internalType": "bytes",
          "name": "data",
          "type": "bytes"
        }
      ],
      "name": "upgradeAndCall",
      "outputs": [],
      "stateMutability": "payable",
      "type": "function"
    }
  ],
  "bytecode": "0x60803460bc57601f61050838819003918201601f19168301916001600160401b0383118484101760c15780849260209460405283398101031260bc57516001600160a01b0381169081900360bc57801560a657600080546001600160a01b031981168317825560405192916001600160a01b03909116907f8be0079c531659141344cd1fd0a4f28419497f9722a3daafe3b4186f6b6457e09080a361043090816100d88239f35b631e4fbdf760e01b600052600060045260246000fd5b600080fd5b634e487b7160e01b600052604160045260246000fdfe6080604052600436101561001257600080fd5b6000803560e01c8063715018a6146102d95780638da5cb5b146102b35780639623609d1461016b578063ad3cb1cc146101065763f2fde38b1461005457600080fd5b34610103576020366003190112610103576004356001600160a01b038116809103610101576100816103b8565b80156100d5576001600160a01b0382548273ffffffffffffffffffffffffffffffffffffffff198216178455167f8be0079c531659141344cd1fd0a4f28419497f9722a3daafe3b4186f6b6457e08380a380f35b6024827f1e4fbdf700000000000000000000000000000000000000000000000000000000815280600452fd5b505b80fd5b50346101035780600319360112610103575061016760405161012960408261033f565b600581527f352e302e300000000000000000000000000000000000000000000000000000006020820152604051918291602083526020830190610377565b0390f35b506060366003190112610103576004356001600160a01b038116809103610101576024356001600160a01b0381168091036102935760443567ffffffffffffffff81116102af57366023820112156102af57806004013567ffffffffffffffff811161029b576040518593929091906101ee601f8301601f19166020018461033f565b81835236602483830101116102975781859260246020930183860137830101526102166103b8565b833b15610293576102659383926040518096819482937f4f1ef2860000000000000000000000000000000000000000000000000000000084526004840152604060248401526044830190610377565b039134905af18015610286576102785780f35b6102819161033f565b388180f35b50604051903d90823e3d90fd5b8280fd5b8480fd5b602485634e487b7160e01b81526041600452fd5b8380fd5b50346101035780600319360112610103576001600160a01b036020915416604051908152f35b50346101035780600319360112610103576102f26103b8565b806001600160a01b03815473ffffffffffffffffffffffffffffffffffffffff1981168355167f8be0079c531659141344cd1fd0a4f28419497f9722a3daafe3b4186f6b6457e08280a380f35b90601f8019910116810190811067ffffffffffffffff82111761036157604052565b634e487b7160e01b600052604160045260246000fd5b919082519283825260005b8481106103a3575050826000602080949584010152601f8019910116010190565b80602080928401015182828601015201610382565b6001600160a01b036000541633036103cc57565b7f118cdaa7000000000000000000000000000000000000000000000000000000006000523360045260246000fdfea264697066735822122037766922e0ae1521c096e1051a02ef112e8265103ecb45e87c4103d914fbae3e64736f6c634300081c0033",
  "linkReferences": {},
  "deployedLinkReferences": {}
}