{
  "_format": "hh-sol-artifact-1",
  "contractName": "BulbaStaking",
  "sourceName": "contracts/BulbaStaking.sol",
  "abi": [
    {
      "inputs": [],
      "stateMutability": "nonpayable",
      "type": "constructor"
    },
    {
      "inputs": [],
      "name": "ECDSAInvalidSignature",
      "type": "error"
    },
    {
      "inputs": [
        {
          "internalType": "uint256",
          "name": "length",
          "type": "uint256"
        }
      ],
      "name": "ECDSAInvalidSignatureLength",
      "type": "error"
    },
    {
      "inputs": [
        {
          "internalType": "bytes32",
          "name": "s",
          "type": "bytes32"
        }
      ],
      "name": "ECDSAInvalidSignatureS",
      "type": "error"
    },
    {
      "inputs": [],
      "name": "EnforcedPause",
      "type": "error"
    },
    {
      "inputs": [],
      "name": "ExpectedPause",
      "type": "error"
    },
    {
      "inputs": [],
      "name": "InvalidInitialization",
      "type": "error"
    },
    {
      "inputs": [],
      "name": "NotInitializing",
      "type": "error"
    },
    {
      "inputs": [
        {
          "internalType": "address",
          "name": "owner",
          "type": "address"
        }
      ],
      "name": "OwnableInvalidOwner",
      "type": "error"
    },
    {
      "inputs": [
        {
          "internalType": "address",
          "name": "account",
          "type": "address"
        }
      ],
      "name": "OwnableUnauthorizedAccount",
      "type": "error"
    },
    {
      "inputs": [],
      "name": "ReentrancyGuardReentrantCall",
      "type": "error"
    },
    {
      "anonymous": false,
      "inputs": [
        {
          "indexed": true,
          "internalType": "address",
          "name": "user",
          "type": "address"
        },
        {
          "indexed": false,
          "internalType": "uint256",
          "name": "amount",
          "type": "uint256"
        },
        {
          "indexed": false,
          "internalType": "uint256",
          "name": "nonce",
          "type": "uint256"
        },
        {
          "indexed": false,
          "internalType": "uint256",
          "name": "remainingAmount",
          "type": "uint256"
        }
      ],
      "name": "Claimed",
      "type": "event"
    },
    {
      "anonymous": false,
      "inputs": [
        {
          "indexed": false,
          "internalType": "uint64",
          "name": "version",
          "type": "uint64"
        }
      ],
      "name": "Initialized",
      "type": "event"
    },
    {
      "anonymous": false,
      "inputs": [
        {
          "indexed": false,
          "internalType": "address",
          "name": "stakingToken",
          "type": "address"
        }
      ],
      "name": "Initialized",
      "type": "event"
    },
    {
      "anonymous": false,
      "inputs": [
        {
          "indexed": true,
          "internalType": "address",
          "name": "previousOwner",
          "type": "address"
        },
        {
          "indexed": true,
          "internalType": "address",
          "name": "newOwner",
          "type": "address"
        }
      ],
      "name": "OwnershipTransferred",
      "type": "event"
    },
    {
      "anonymous": false,
      "inputs": [
        {
          "indexed": false,
          "internalType": "address",
          "name": "account",
          "type": "address"
        }
      ],
      "name": "Paused",
      "type": "event"
    },
    {
      "anonymous": false,
      "inputs": [
        {
          "indexed": true,
          "internalType": "address",
          "name": "user",
          "type": "address"
        },
        {
          "indexed": false,
          "internalType": "uint256",
          "name": "amount",
          "type": "uint256"
        },
        {
          "indexed": false,
          "internalType": "uint256",
          "name": "lockPeriod",
          "type": "uint256"
        }
      ],
      "name": "Staked",
      "type": "event"
    },
    {
      "anonymous": false,
      "inputs": [
        {
          "indexed": false,
          "internalType": "address",
          "name": "account",
          "type": "address"
        }
      ],
      "name": "Unpaused",
      "type": "event"
    },
    {
      "anonymous": false,
      "inputs": [
        {
          "indexed": true,
          "internalType": "address",
          "name": "user",
          "type": "address"
        },
        {
          "indexed": false,
          "internalType": "uint256",
          "name": "amount",
          "type": "uint256"
        },
        {
          "indexed": false,
          "internalType": "uint256",
          "name": "lockPeriod",
          "type": "uint256"
        }
      ],
      "name": "Unstaked",
      "type": "event"
    },
    {
      "anonymous": false,
      "inputs": [
        {
          "indexed": true,
          "internalType": "address",
          "name": "user",
          "type": "address"
        },
        {
          "indexed": false,
          "internalType": "uint256",
          "name": "amount",
          "type": "uint256"
        }
      ],
      "name": "VestedTokensClaimed",
      "type": "event"
    },
    {
      "inputs": [],
      "name": "NINETY_DAYS",
      "outputs": [
        {
          "internalType": "uint256",
          "name": "",
          "type": "uint256"
        }
      ],
      "stateMutability": "view",
      "type": "function"
    },
    {
      "inputs": [],
      "name": "SIXTY_DAYS",
      "outputs": [
        {
          "internalType": "uint256",
          "name": "",
          "type": "uint256"
        }
      ],
      "stateMutability": "view",
      "type": "function"
    },
    {
      "inputs": [],
      "name": "THIRTY_DAYS",
      "outputs": [
        {
          "internalType": "uint256",
          "name": "",
          "type": "uint256"
        }
      ],
      "stateMutability": "view",
      "type": "function"
    },
    {
      "inputs": [],
      "name": "backendSigner",
      "outputs": [
        {
          "internalType": "address",
          "name": "",
          "type": "address"
        }
      ],
      "stateMutability": "view",
      "type": "function"
    },
    {
      "inputs": [
        {
          "internalType": "uint256",
          "name": "amount",
          "type": "uint256"
        },
        {
          "internalType": "uint256",
          "name": "nonce",
          "type": "uint256"
        },
        {
          "internalType": "bytes",
          "name": "signature",
          "type": "bytes"
        }
      ],
      "name": "claim",
      "outputs": [],
      "stateMutability": "nonpayable",
      "type": "function"
    },
    {
      "inputs": [],
      "name": "claimVestedTokens",
      "outputs": [],
      "stateMutability": "nonpayable",
      "type": "function"
    },
    {
      "inputs": [
        {
          "internalType": "uint256",
          "name": "amount",
          "type": "uint256"
        }
      ],
      "name": "emergencyWithdraw",
      "outputs": [],
      "stateMutability": "nonpayable",
      "type": "function"
    },
    {
      "inputs": [
        {
          "internalType": "address",
          "name": "user",
          "type": "address"
        }
      ],
      "name": "getAllStakes",
      "outputs": [
        {
          "internalType": "uint256[3]",
          "name": "amounts",
          "type": "uint256[3]"
        },
        {
          "internalType": "uint256[3]",
          "name": "startTimes",
          "type": "uint256[3]"
        },
        {
          "internalType": "bool[3]",
          "name": "isActives",
          "type": "bool[3]"
        },
        {
          "internalType": "uint256[3]",
          "name": "timeUntilUnlocks",
          "type": "uint256[3]"
        }
      ],
      "stateMutability": "view",
      "type": "function"
    },
    {
      "inputs": [
        {
          "internalType": "address",
          "name": "user",
          "type": "address"
        },
        {
          "internalType": "uint256",
          "name": "lockPeriod",
          "type": "uint256"
        }
      ],
      "name": "getStakeInfo",
      "outputs": [
        {
          "internalType": "uint256",
          "name": "amount",
          "type": "uint256"
        },
        {
          "internalType": "uint256",
          "name": "startTime",
          "type": "uint256"
        },
        {
          "internalType": "bool",
          "name": "isActive",
          "type": "bool"
        },
        {
          "internalType": "uint256",
          "name": "timeUntilUnlock",
          "type": "uint256"
        }
      ],
      "stateMutability": "view",
      "type": "function"
    },
    {
      "inputs": [
        {
          "internalType": "address",
          "name": "user",
          "type": "address"
        }
      ],
      "name": "getVestedAmount",
      "outputs": [
        {
          "internalType": "uint256",
          "name": "",
          "type": "uint256"
        }
      ],
      "stateMutability": "view",
      "type": "function"
    },
    {
      "inputs": [
        {
          "internalType": "address",
          "name": "_stakingToken",
          "type": "address"
        },
        {
          "internalType": "address",
          "name": "_backendSigner",
          "type": "address"
        },
        {
          "internalType": "address",
          "name": "_owner",
          "type": "address"
        }
      ],
      "name": "initialize",
      "outputs": [],
      "stateMutability": "nonpayable",
      "type": "function"
    },
    {
      "inputs": [
        {
          "internalType": "address",
          "name": "user",
          "type": "address"
        }
      ],
      "name": "nonces",
      "outputs": [
        {
          "internalType": "uint256",
          "name": "nonce",
          "type": "uint256"
        }
      ],
      "stateMutability": "view",
      "type": "function"
    },
    {
      "inputs": [],
      "name": "owner",
      "outputs": [
        {
          "internalType": "address",
          "name": "",
          "type": "address"
        }
      ],
      "stateMutability": "view",
      "type": "function"
    },
    {
      "inputs": [],
      "name": "pause",
      "outputs": [],
      "stateMutability": "nonpayable",
      "type": "function"
    },
    {
      "inputs": [],
      "name": "paused",
      "outputs": [
        {
          "internalType": "bool",
          "name": "",
          "type": "bool"
        }
      ],
      "stateMutability": "view",
      "type": "function"
    },
    {
      "inputs": [],
      "name": "renounceOwnership",
      "outputs": [],
      "stateMutability": "nonpayable",
      "type": "function"
    },
    {
      "inputs": [
        {
          "internalType": "address",
          "name": "_backendSigner",
          "type": "address"
        }
      ],
      "name": "setBackendSigner",
      "outputs": [],
      "stateMutability": "nonpayable",
      "type": "function"
    },
    {
      "inputs": [
        {
          "internalType": "uint256",
          "name": "amount",
          "type": "uint256"
        },
        {
          "internalType": "uint256",
          "name": "lockPeriod",
          "type": "uint256"
        }
      ],
      "name": "stake",
      "outputs": [],
      "stateMutability": "nonpayable",
      "type": "function"
    },
    {
      "inputs": [
        {
          "internalType": "address",
          "name": "user",
          "type": "address"
        },
        {
          "internalType": "uint256",
          "name": "lockPeriod",
          "type": "uint256"
        }
      ],
      "name": "stakes",
      "outputs": [
        {
          "internalType": "uint256",
          "name": "amount",
          "type": "uint256"
        },
        {
          "internalType": "uint256",
          "name": "startTime",
          "type": "uint256"
        },
        {
          "internalType": "bool",
          "name": "isActive",
          "type": "bool"
        }
      ],
      "stateMutability": "view",
      "type": "function"
    },
    {
      "inputs": [],
      "name": "stakingToken",
      "outputs": [
        {
          "internalType": "contract IERC20",
          "name": "",
          "type": "address"
        }
      ],
      "stateMutability": "view",
      "type": "function"
    },
    {
      "inputs": [
        {
          "internalType": "address",
          "name": "newOwner",
          "type": "address"
        }
      ],
      "name": "transferOwnership",
      "outputs": [],
      "stateMutability": "nonpayable",
      "type": "function"
    },
    {
      "inputs": [],
      "name": "unpause",
      "outputs": [],
      "stateMutability": "nonpayable",
      "type": "function"
    },
    {
      "inputs": [
        {
          "internalType": "uint256",
          "name": "lockPeriod",
          "type": "uint256"
        }
      ],
      "name": "unstake",
      "outputs": [],
      "stateMutability": "nonpayable",
      "type": "function"
    },
    {
      "inputs": [
        {
          "internalType": "address",
          "name": "user",
          "type": "address"
        }
      ],
      "name": "vestingSchedules",
      "outputs": [
        {
          "internalType": "uint256",
          "name": "originalTotalAmount",
          "type": "uint256"
        },
        {
          "internalType": "uint256",
          "name": "remainingAmount",
          "type": "uint256"
        },
        {
          "internalType": "uint256",
          "name": "startTime",
          "type": "uint256"
        }
      ],
      "stateMutability": "view",
      "type": "function"
    }
  ],
  "bytecode": "0x6080806040523460d2577ff0c57e16840df040f15088dc2f81fe391c3923bec73e23a9662efc9c229c6a005460ff8160401c1660c1576002600160401b03196001600160401b03821601605c575b604051611c8690816100d88239f35b6001600160401b0319166001600160401b039081177ff0c57e16840df040f15088dc2f81fe391c3923bec73e23a9662efc9c229c6a005581527fc7f505b2f371ae2175ee4913f4499e1f2633a7b5936321eed1cdaeb6115181d290602090a13880604d565b63f92ee8a960e01b60005260046000fd5b600080fdfe6080604052600436101561001257600080fd5b60003560e01c8063042389941461149a5780632e17de78146111b457806336f95670146111745780633b521efe146110945780633f4ba83a14610fd45780635312ea8e14610eaf578063584b62a114610e4b5780635c975abb14610e095780635eddd15714610a6a57806365d65e8614610a43578063715018a6146109aa57806372f702f3146109835780637b0472f0146107935780637ecebe00146107595780638456cb59146106c15780638da5cb5b1461067b578063a21df9f01461065d578063a531fd641461063f578063c0c53b8b1461036e578063d5a73fdd14610343578063e372c90014610325578063e74f3fbb146101b3578063f2fde38b146101885763fdb20ccb1461012457600080fd5b34610183576020366003190112610183576001600160a01b03610145611665565b1660005260046020526040600020805461017f60026001840154930154604051938493846040919493926060820195825260208201520152565b0390f35b600080fd5b34610183576020366003190112610183576101b16101a4611665565b6101ac6119fe565b611871565b005b34610183576000366003190112610183576101cc611930565b6101d46119a9565b6101dd336117fc565b80156102e15733600052600460205260016040600020016101ff828254611741565b90556001600160a01b03600054166020604051809263a9059cbb60e01b825281600081610246883360048401602090939291936001600160a01b0360408201951681520152565b03925af180156102d5576102a8575b506040519081527f7c81c4cf7e50aeb1d3679b5135b64608b72050a29fcbcdeb48e0293fbd3a6cc260203392a260017f9b779b17422d0df92223018b32b4d1fa46e071723d6817e2486d003becc55f0055005b6102c99060203d6020116102ce575b6102c181836116d5565b810190611799565b610255565b503d6102b7565b6040513d6000823e3d90fd5b606460405162461bcd60e51b815260206004820152601a60248201527f4e6f2076657374656420746f6b656e7320617661696c61626c650000000000006044820152fd5b346101835760003660031901126101835760206040516276a7008152f35b34610183576020366003190112610183576020610366610361611665565b6117fc565b604051908152f35b3461018357606036600319011261018357610387611665565b602435906001600160a01b03821680920361018357604435916001600160a01b0383168303610183577ff0c57e16840df040f15088dc2f81fe391c3923bec73e23a9662efc9c229c6a00549060ff8260401c16159367ffffffffffffffff831680159081610637575b600114908161062d575b159081610624575b506105fa577f908408e307fc569b417f6cbec5d5a06f44a0a505ac0479b47d421a4b2fd6a1e6936104806001600160a01b039260209588600167ffffffffffffffff198316177ff0c57e16840df040f15088dc2f81fe391c3923bec73e23a9662efc9c229c6a00556105bb575b50610478611b6e565b6101ac611b6e565b610488611b6e565b610490611b6e565b60017f9b779b17422d0df92223018b32b4d1fa46e071723d6817e2486d003becc55f00556104bc611b6e565b6104c4611b6e565b60ff197fcd5ed15c6e187e77e9aee88184c21f4f2182ab5827cb3b7e07fbedcd63f0330054167fcd5ed15c6e187e77e9aee88184c21f4f2182ab5827cb3b7e07fbedcd63f03300551690816001600160a01b031960005416176000556001600160a01b03196001541617600155604051908152a161053e57005b68ff0000000000000000197ff0c57e16840df040f15088dc2f81fe391c3923bec73e23a9662efc9c229c6a0054167ff0c57e16840df040f15088dc2f81fe391c3923bec73e23a9662efc9c229c6a00557fc7f505b2f371ae2175ee4913f4499e1f2633a7b5936321eed1cdaeb6115181d2602060405160018152a1005b68ffffffffffffffffff191668010000000000000001177ff0c57e16840df040f15088dc2f81fe391c3923bec73e23a9662efc9c229c6a00558861046f565b7ff92ee8a90000000000000000000000000000000000000000000000000000000060005260046000fd5b90501586610402565b303b1591506103fa565b8691506103f0565b34610183576000366003190112610183576020604051624f1a008152f35b3461018357600036600319011261018357602060405162278d008152f35b346101835760003660031901126101835760206001600160a01b037f9016d09d72d40fdae2fd8ceac6b6234c7706214fd39c1cd1e609a0528c1993005416604051908152f35b34610183576000366003190112610183576106da6119fe565b6106e26119a9565b600160ff197fcd5ed15c6e187e77e9aee88184c21f4f2182ab5827cb3b7e07fbedcd63f033005416177fcd5ed15c6e187e77e9aee88184c21f4f2182ab5827cb3b7e07fbedcd63f03300557f62e78cea01bee320cd4e420270b5ea74000d11b0c9f74754ebdbfc544b05a2586020604051338152a1005b34610183576020366003190112610183576001600160a01b0361077a611665565b1660005260036020526020604060002054604051908152f35b34610183576040366003190112610183576004356024356107b2611930565b6107ba6119a9565b811561093f5762278d0081148015610933575b8015610927575b6107dd9061174e565b3360005260026020526040600020816000526020526000604081205460206001600160a01b038354166064604051809581937f23b872dd0000000000000000000000000000000000000000000000000000000083523360048401523060248401528960448401525af19182156102d55761085d9261090a575b508361171e565b6040519061086a826116a3565b8152600260208201914283526040810192600184523360005282602052604060002085600052602052604060002091518255516001820155019051151560ff8019835416911617905560405191825260208201527f1449c6dd7851abc30abf37f57715f492010519147cc2652fbc38202c18a6ee9060403392a260017f9b779b17422d0df92223018b32b4d1fa46e071723d6817e2486d003becc55f0055005b6109229060203d6020116102ce576102c181836116d5565b610856565b506276a70081146107d4565b50624f1a0081146107cd565b606460405162461bcd60e51b815260206004820152601560248201527f43616e6e6f74207374616b65203020746f6b656e7300000000000000000000006044820152fd5b346101835760003660031901126101835760206001600160a01b0360005416604051908152f35b34610183576000366003190112610183576109c36119fe565b60006001600160a01b037f9016d09d72d40fdae2fd8ceac6b6234c7706214fd39c1cd1e609a0528c199300546001600160a01b031981167f9016d09d72d40fdae2fd8ceac6b6234c7706214fd39c1cd1e609a0528c19930055167f8be0079c531659141344cd1fd0a4f28419497f9722a3daafe3b4186f6b6457e08280a3005b346101835760003660031901126101835760206001600160a01b0360015416604051908152f35b346101835760603660031901126101835760443560043560243567ffffffffffffffff831161018357366023840112156101835782600401359267ffffffffffffffff841161018357366024858301011161018357610ac7611930565b610acf6119a9565b3360005260036020526040600020548203610dc557610b85610b8e91602095604051878101903360601b82528760348201528660548201523060601b607482015246608882015260888152610b2560a8826116d5565b5190207f19457468657265756d205369676e6564204d6573736167653a0a333200000000600052601c52603c60002090600097818992602460405196610b7485601f19601f86011601896116d5565b828852018387013784010152611a5f565b90929192611a9b565b6001600160a01b038060015416911603610d8157602460206001600160a01b03855416604051928380926370a0823160e01b82523060048301525afa8015610d76578490610d3e575b610be491508311156117b1565b6014820282810460141483151715610d2a5760649004610c048184611741565b90338552600460205260408520610c206001820193845461171e565b808455815560024291015533855260036020526040852080549060018201809211610d165755845460405163a9059cbb60e01b81523360048201526024810192909252909291906020908490604490829089906001600160a01b03165af1928315610d0b577f9cdcf2f7714cca3508c7f0110b04a90a80a3a8dd0e35de99689db74d28c5383e93610cee575b5054604080519485526020850192909252908301523391606090a260017f9b779b17422d0df92223018b32b4d1fa46e071723d6817e2486d003becc55f005580f35b610d069060203d6020116102ce576102c181836116d5565b610cac565b6040513d87823e3d90fd5b602487634e487b7160e01b81526011600452fd5b602484634e487b7160e01b81526011600452fd5b506020813d602011610d6e575b81610d58602093836116d5565b81010312610d6a57610be49051610bd7565b8380fd5b3d9150610d4b565b6040513d86823e3d90fd5b606460405162461bcd60e51b815260206004820152601160248201527f496e76616c6964207369676e61747572650000000000000000000000000000006044820152fd5b606460405162461bcd60e51b815260206004820152600d60248201527f496e76616c6964206e6f6e6365000000000000000000000000000000000000006044820152fd5b3461018357600036600319011261018357602060ff7fcd5ed15c6e187e77e9aee88184c21f4f2182ab5827cb3b7e07fbedcd63f0330054166040519015158152f35b34610183576040366003190112610183576001600160a01b03610e6c611665565b16600052600260205260406000206024356000526020526060604060002080549060ff600260018301549201541690604051928352602083015215156040820152f35b3461018357602036600319011261018357600435610ecb6119fe565b6001600160a01b0360005416906040516370a0823160e01b8152306004820152602081602481865afa9081156102d557600091610f9e575b5090610f7692610f176020938311156117b1565b6001600160a01b037f9016d09d72d40fdae2fd8ceac6b6234c7706214fd39c1cd1e609a0528c1993005416600060405180968195829463a9059cbb60e01b845260048401602090939291936001600160a01b0360408201951681520152565b03925af180156102d557610f8657005b6101b19060203d6020116102ce576102c181836116d5565b9190506020823d602011610fcc575b81610fba602093836116d5565b81010312610183579051610f76610f03565b3d9150610fad565b3461018357600036600319011261018357610fed6119fe565b7fcd5ed15c6e187e77e9aee88184c21f4f2182ab5827cb3b7e07fbedcd63f033005460ff81161561106a5760ff19167fcd5ed15c6e187e77e9aee88184c21f4f2182ab5827cb3b7e07fbedcd63f03300557f5db9ee0a495bf2e6ff9c91a7834c1ba4fdd244a5e8aa4e537bd38aeae4b073aa6020604051338152a1005b7f8dfc202b0000000000000000000000000000000000000000000000000000000060005260046000fd5b346101835760403660031901126101835760806110af611665565b6001600160a01b036024359162278d0083148015611168575b801561115c575b6110d89061174e565b166000526002602052604060002081600052602052604060002080549160ff600260018401549301541615908115809290611149575b1561112f57506000915b604051938452602084015260408301526060820152f35b61113c611143918461171e565b4290611741565b91611118565b50611154818461171e565b42101561110e565b506276a70083146110cf565b50624f1a0083146110c8565b34610183576020366003190112610183576001600160a01b03611195611665565b61119d6119fe565b166001600160a01b03196001541617600155600080f35b34610183576020366003190112610183576004356111d0611930565b6111d86119a9565b62278d008114801561148e575b8015611482575b6111f59061174e565b33600052600260205260406000208160005260205260406000206040519061121c826116a3565b8054825260ff600260018301549260208501938452015416158015604084015261143e578261124b915161171e565b42106113fa578051602460206001600160a01b0360005416604051928380926370a0823160e01b82523060048301525afa80156102d55782916000916113c5575b50106113815760206112fb600092338452600283526040842086855283528360026040822082815582600182015501556001600160a01b038454169060405194858094819363a9059cbb60e01b83523360048401602090939291936001600160a01b0360408201951681520152565b03925af180156102d557611364575b50519060405191825260208201527f7fc4727e062e336010f2c282598ef5f14facb3de68cf8195c2f23e1454b2b74e60403392a260017f9b779b17422d0df92223018b32b4d1fa46e071723d6817e2486d003becc55f0055005b61137c9060203d6020116102ce576102c181836116d5565b61130a565b606460405162461bcd60e51b815260206004820152601d60248201527f496e73756666696369656e7420636f6e74726163742062616c616e63650000006044820152fd5b9150506020813d6020116113f2575b816113e1602093836116d5565b81010312610183578190518561128c565b3d91506113d4565b606460405162461bcd60e51b815260206004820152601560248201527f4c6f636b20706572696f64206e6f7420656e64656400000000000000000000006044820152fd5b606460405162461bcd60e51b815260206004820152601f60248201527f4e6f20616374697665207374616b6520666f72207468697320706572696f64006044820152fd5b506276a70081146111ec565b50624f1a0081146111e5565b34610183576020366003190112610183576114b3611665565b60405160606114c281836116d5565b803683376040516114d382826116d5565b81368237604051916114e581846116d5565b80368437604051946114f782876116d5565b81368737604051611507816116a3565b62278d008152624f1a0060208201526276a70060408201526001600160a01b0360009216915b6003811061158d57505050906115529161154a604051809661167b565b84019061167b565b600060c083015b60038210611575576101808461157361012082018861167b565bf35b60208060019285511515815201930191019091611559565b60019083600052600260205260406000206115a882856116f7565b5160005260205260ff6002604060002080546115c4858d6116f7565b52848101546115d3858b6116f7565b520154166115e182896116f7565b90151590526115f081886116f7565b51158015611644575b1561161257600061160a828b6116f7565b525b0161152d565b61163461113c61162283896116f7565b5161162d84876116f7565b519061171e565b61163e828b6116f7565b5261160c565b5061165d61165282886116f7565b5161162d83866116f7565b4210156115f9565b600435906001600160a01b038216820361018357565b906000905b6003821061168d57505050565b6020806001928551815201930191019091611680565b6060810190811067ffffffffffffffff8211176116bf57604052565b634e487b7160e01b600052604160045260246000fd5b90601f8019910116810190811067ffffffffffffffff8211176116bf57604052565b9060038110156117085760051b0190565b634e487b7160e01b600052603260045260246000fd5b9190820180921161172b57565b634e487b7160e01b600052601160045260246000fd5b9190820391821161172b57565b1561175557565b606460405162461bcd60e51b815260206004820152601360248201527f496e76616c6964206c6f636b20706572696f64000000000000000000000000006044820152fd5b90816020910312610183575180151581036101835790565b156117b857565b606460405162461bcd60e51b815260206004820152601460248201527f496e73756666696369656e742062616c616e63650000000000000000000000006044820152fd5b6001600160a01b031660005260046020526040600020600181015490811561186a5761182c600282015442611741565b906276a70082101561186557549181830291838304148315171561172b5761185b6276a7009161186294611741565b9104611741565b90565b505090565b5050600090565b6001600160a01b03168015611901576001600160a01b037f9016d09d72d40fdae2fd8ceac6b6234c7706214fd39c1cd1e609a0528c19930054826001600160a01b03198216177f9016d09d72d40fdae2fd8ceac6b6234c7706214fd39c1cd1e609a0528c19930055167f8be0079c531659141344cd1fd0a4f28419497f9722a3daafe3b4186f6b6457e0600080a3565b7f1e4fbdf700000000000000000000000000000000000000000000000000000000600052600060045260246000fd5b60027f9b779b17422d0df92223018b32b4d1fa46e071723d6817e2486d003becc55f00541461197f5760027f9b779b17422d0df92223018b32b4d1fa46e071723d6817e2486d003becc55f0055565b7f3ee5aeb50000000000000000000000000000000000000000000000000000000060005260046000fd5b60ff7fcd5ed15c6e187e77e9aee88184c21f4f2182ab5827cb3b7e07fbedcd63f0330054166119d457565b7fd93c06650000000000000000000000000000000000000000000000000000000060005260046000fd5b6001600160a01b037f9016d09d72d40fdae2fd8ceac6b6234c7706214fd39c1cd1e609a0528c19930054163303611a3157565b7f118cdaa7000000000000000000000000000000000000000000000000000000006000523360045260246000fd5b8151919060418303611a9057611a8992506020820151906060604084015193015160001a90611bc7565b9192909190565b505060009160029190565b9190916004811015611b585780611ab157509050565b600060018203611ae5577ff645eedf0000000000000000000000000000000000000000000000000000000060005260046000fd5b5060028103611b1c57827ffce698f70000000000000000000000000000000000000000000000000000000060005260045260246000fd5b9091600360009214611b2c575050565b602492507fd78bce0c000000000000000000000000000000000000000000000000000000008252600452fd5b634e487b7160e01b600052602160045260246000fd5b60ff7ff0c57e16840df040f15088dc2f81fe391c3923bec73e23a9662efc9c229c6a005460401c1615611b9d57565b7fd7e6bcf80000000000000000000000000000000000000000000000000000000060005260046000fd5b91907f7fffffffffffffffffffffffffffffff5d576e7357a4501ddfe92f46681b20a08411611c44579160209360809260ff60009560405194855216868401526040830152606082015282805260015afa156102d5576000516001600160a01b03811615611c385790600090600090565b50600090600190600090565b5050506000916003919056fea264697066735822122048afe82cf62f0179dadd0fdf5127415dd641ebf548c61d26bab02d0e69088d6e64736f6c634300081c0033",
  "linkReferences": {},
  "deployedLinkReferences": {}
}